:100000000C942A000C9447000C9447000C94470071
:100010000C9447000C9447000C9447000C94470044
:100020000C9447000C9447000C9447000C94A101D9
:100030000C9447000C94C5010C9447000C944700A5
:100040000C9447000C9447000C9447000C94470014
:100050000C94470011241FBECFE5D4E0DEBFCDBF16
:1000600010E0A0E6B0E0E6EDF3E002C005900D92EE
:10007000AA37B107D9F720E0AAE7B0E001C01D9286
:10008000A23FB207E1F70E94E2000C94E9010C9450
:100090000000899A8898919A08950F931F93CF939F
:1000A000DF9300D000D0CDB7DEB75A8349831B82DF
:1000B0001C82AE014F5F5F4F0E940E018B8188232F
:1000C000C1F000E010E0CE0101960E94EF00813007
:1000D00011F4919A01C091988FE99FE00197F1F78F
:1000E00000C000000F5F1F4F8B8190E008171907B9
:1000F00050F3919A0F900F900F900F90DF91CF9146
:100100001F910F910895FC01958184812681211111
:100110000CC0891718F481E083830895981302C0F6
:100120001382089584E083830895891718F483E087
:1001300083830895981303C082E08383089581E048
:1001400083830895DC0113962C911397223000F5D8
:1001500015962C911597ED91FC911197E20FF11DD9
:10016000608315962C91159712963C911297231740
:1001700028F42F5F15962C93159707C015961C929F
:10018000159721E016962C931697CD010E948300B7
:100190000895CF93FC019381923088F48481A081EB
:1001A000B181A80FB11DCC919281891718F48F5F8E
:1001B000848302C014821682CF010E9483008C2F98
:1001C000CF9108950E9449000E9489014AE750E0BA
:1001D0006AE070E08EE690E00E944D00F7CFFC01EF
:1001E00082818823C9F0938121E030E0092E02C08A
:1001F000220F331F0A94E2F7A081B1814D915C91E7
:1002000024233523092E02C0369527950A94E2F758
:10021000822F9F5F9383089580E00895AF92BF92ED
:10022000CF92DF92EF92FF920F931F93CF93DF93C2
:10023000FA011382662309F461C0C82FD92F6150D7
:10024000E62EF12C8FEFE81AF80AEE0CFF1C40E0C6
:1002500050E0A12CB12C61E070E002E010E04BC056
:10026000888190E0DB01022E02C0AA0FBB1F0A9416
:10027000E2F78A239B23022E02C0959587950A9464
:10028000E2F7813099F4A081B181A40FB51FCB01B1
:10029000038002C0880F991F0A94E2F7CD90DC908A
:1002A00011978C299D298D939C9312C0A081B181B7
:1002B000A40FB51FC801038002C0880F991F0A94BC
:1002C000E2F7CD90DC9011978C299D298D939C931A
:1002D00083818E5F83832F5F3F4F2830310509F084
:1002E000BFCF9281890F828313824E5F5F4F219629
:1002F0004E155F0519F02A2D3B2DB2CFDF91CF911E
:100300001F910F91FF90EF90DF90CF90BF90AF9033
:1003100008951FBC81E08EBD0895809163008823FD
:1003200029F080E690E00E94C9008CB90895809180
:100330006A00823029F06CB187E690E00E94A2004A
:1003400008951F920F920FB60F9211242F933F938F
:100350004F935F936F937F938F939F93AF93BF93CD
:10036000EF93FF930E949701FF91EF91BF91AF919F
:100370009F918F917F916F915F914F913F912F91BD
:100380000F900FBE0F901F9018951F920F920FB6EF
:100390000F9211242F933F934F935F936F937F930B
:1003A0008F939F93AF93BF93EF93FF930E948D0121
:1003B000FF91EF91BF91AF919F918F917F916F913D
:1003C0005F914F913F912F910F900FBE0F901F9013
:0603D0001895F894FFCF20
:1003D6008E003200000000C00032000000004865B8
:0A03E6006C6C6F20576F726C64009E
:00000001FF
