S00E00005246546573742E73726563DE
S11300000C942A000C9447000C9447000C9447006D
S11300100C9447000C9447000C9447000C94470040
S11300200C9447000C9447000C9447000C94C300B4
S11300300C9447000C94E7000C9447000C94470080
S11300400C9447000C9447000C9447000C94470010
S11300500C94470011241FBECFE5D4E0DEBFCDBF12
S113006010E0A0E6B0E0EAE1F2E002C005900D92F3
S1130070AE36B107D9F720E0AEE6B0E001C01D927C
S1130080A23DB207E1F70E94A8000C940B010C9466
S11300900000FC0195818481268121110CC08917FF
S11300A018F481E083830895981302C0138208959D
S11300B084E083830895891718F483E08383089583
S11300C0981303C082E08383089581E083830895B5
S11300D0DC0113962C911397223000F515962C9180
S11300E01597ED91FC911197E20FF11D6083159620
S11300F02C91159712963C911297231728F42F5F91
S113010015962C93159707C015961C92159721E008
S113011016962C931697CD010E9449000895CF930B
S1130120FC019381923088F48481A081B181A80F6D
S1130130B11DCC919281891718F48F5F848302C01A
S113014014821682CF010E9449008C2FCF9108950A
S11301500E94AB00FFCF1FBC81E08EBD089580914B
S11301606300882329F080E690E00E948F008CB918
S1130170089580916A00823029F06CB187E690E09E
S11301800E94680008951F920F920FB60F921124D7
S11301902F933F934F935F936F937F938F939F938B
S11301A0AF93BF93EF93FF930E94B900FF91EF9138
S11301B0BF91AF919F918F917F916F915F914F917B
S11301C03F912F910F900FBE0F901F9018951F9283
S11301D00F920FB60F9211242F933F934F935F9377
S11301E06F937F938F939F93AF93BF93EF93FF93FB
S11301F00E94AF00FF91EF91BF91AF919F918F91BA
S11302007F916F915F914F913F912F910F900FBE0E
S10D02100F901F901895F894FFCF8B
S111021A6E003200000000A000320000000060
S9030000FC
