:100000000C942A000C9447000C9447000C94470071
:100010000C9447000C9447000C9447000C94470044
:100020000C9447000C9447000C9447000C94670113
:100030000C9447000C948B010C9447000C944700DF
:100040000C9447000C9447000C9447000C94470014
:100050000C94470011241FBECFE5D4E0DEBFCDBF16
:1000600010E0A0E6B0E0E2E6F3E002C005900D92F9
:10007000A238B107D9F720E0A2E8B0E001C01D9294
:10008000A63EB207E1F70E94A8000C94AF010C94C1
:100090000000FC0195818481268121110CC0891703
:1000A00018F481E083830895981302C013820895A1
:1000B00084E083830895891718F483E08383089587
:1000C000981303C082E08383089581E083830895B9
:1000D000DC0113962C911397223000F515962C9184
:1000E0001597ED91FC911197E20FF11D6083159624
:1000F0002C91159712963C911297231728F42F5F95
:1001000015962C93159707C015961C92159721E00C
:1001100016962C931697CD010E9449000895CF930F
:10012000FC019381923088F48481A081B181A80F71
:10013000B11DCC919281891718F48F5F848302C01E
:1001400014821682CF010E9449008C2FCF9108950E
:1001500078948CE690E00E944001C0E6D0E00AE688
:1001600010E001C0FFCF89910E945C012FEF83EC6A
:1001700099E0215080409040E1F700C00000C01796
:10018000D10789F7EFCF80917700882329F084E7A2
:1001900090E00E948F008CB9089580917E0082309B
:1001A00029F06CB18BE790E00E94680008958F3FC2
:1001B000910509F010F489B9089589B990BD0895A1
:1001C000813011F4549A01C05498613011F4539A5B
:1001D000089553980895579A569A0895823069F071
:1001E000833099F0811118C080B58F76806880BD0A
:1001F00080B58F75806880BD089580B58F768068E2
:1002000080BD80B5806A80BD089580B5806980BD5D
:1002100080B5806A80BD089580B58F7E80BD80B531
:100220008F7D80BD0895813029F480B587778068FF
:1002300080BD089580B5886880BD0895823079F0CA
:1002400028F48823E1F0813031F016C0833059F072
:10025000873069F011C080B5826880BD089580B58F
:10026000846880BD089580B5866880BD089580B596
:10027000866880BD529A089580B5866880BD0895CD
:10028000CF93DF930097A9F0EC018E819F810E94AC
:10029000D700698188810E94E0008A810E94EE0077
:1002A0008B810E9413018C810E941E010E94EB0031
:1002B0007894DF91CF910895682F84E790E00E94B1
:1002C000680084E790E00E948F008CB908951F9227
:1002D0000F920FB60F9211242F933F934F935F937A
:1002E0006F937F938F939F93AF93BF93EF93FF93FE
:1002F0000E94CD00FF91EF91BF91AF919F918F919F
:100300007F916F915F914F913F912F910F900FBE11
:100310000F901F9018951F920F920FB60F921124F5
:100320002F933F934F935F936F937F938F939F93FD
:10033000AF93BF93EF93FF930E94C300FF91EF91A0
:10034000BF91AF919F918F917F916F915F914F91ED
:100350003F912F910F900FBE0F901F901895F8941A
:02036000FFCFCD
:1003620048656C6C6F20576F726C6400010102016A
:100372000301A00182003200000000B4003200003C
:02038200000079
:00000001FF
