S00B00004E65772E73726563EF
S11300000C942A000C943C000C943C000C943C008E
S11300100C943C000C943C000C943C000C943C006C
S11300200C943C000C943C000C943C000C943C005C
S11300300C943C000C943C000C943C000C943C004C
S11300400C943C000C943C000C943C000C943C003C
S11300500C943C0011241FBECFE5D8E0DEBFCDBF19
S113006020E0A0E6B0E001C01D92A136B207E1F79E
S11300700E943E000C94FC000C94000081E00E945D
S11300804E0082E00E94600080E00E947B0081E0DC
S11300900E94D3008BE40E94DB00FFCF833039F44D
S11300A083B7806483BF83B7886083BF089581303A
S11300B031F483B7806483BF83B7877F83BF089598
S11300C0811107C083B78F7E83BF83B78F7D83BFC2
S11300D00895833039F483B78F7E83BF83B78062FA
S11300E083BF0895823031F483B7806183BF83B7BF
S11300F0806283BF0895809360000895BB9A8091C5
S1130100600081110AC083B7816083BF83B78D7F8C
S113011083BF83B78B7F83BF0895813051F483B746
S11301208E7F83BF83B7826083BF83B78B7F83BF98
S11301300895823051F483B7816083BF83B78260AE
S113014083BF83B78B7F83BF0895833051F483B714
S11301508E7F83BF83B78D7F83BF83B7846083BF64
S11301600895843049F483B7816083BF83B78D7F5A
S113017083BF83B7846083BF089583B793B783B77E
S1130180282F2270892F8170822B90E00197809311
S1130190600083B78E7F83BF83B78D7F83BF83B7B0
S11301A08B7F83BF0895813019F40E947E000895E7
S11301B00E94BD000895853678F49FEF899F9001D1
S11301C011243695279536952795ABE7B4E10E941F
S11301D0ED00969587958CBF0895A29FB001B39FBB
S11301E0C001A39F700D811D1124911DB29F700D3C
S10F01F0811D1124911D0895F894FFCF87
S9030000FC
