S01700004763634170706C69636174696F6E312E737265635B
S11300000C9433000C9448000C9448000C94480061
S11300100C9448000C9448000C9448000C9448003C
S11300200C9448000C9448000C9448000C9448002C
S11300300C9448000C9448000C9448000C9448001C
S11300400C9448000C9448000C9448000C9448000C
S11300500C9448007B027D028A027F028A0281029C
S113006083028502870211241FBECFE5D8E0DEBFDC
S1130070CDBF11E0A0E6B0E0E2E0F6E002C00590FA
S11300800D92A438B107D9F70E945A000C94FF02CC
S11300900C940000FC0111821082108A08956115ED
S11300A0710539F0FC0120813181232B11F071831A
S11300B060830895CF93DF93CDB7DEB7EF970FB684
S11300C0F894DEBF0FBECDBFCE018F960E944A00CA
S11300D0CE0101960E942801BE016F5F7F4FCE01C1
S11300E08F960E944F00FFCF089508950895FC0154
S11300F07383628308950895DC011296ED91FC9157
S113010013978081682B60830895DC011296ED912A
S1130110FC91139780816095682360830895DC01C6
S11301201296ED91FC9113972081862F90E0019611
S113013030E08223932302C0959587956A95E2F770
S11301400895DC011296ED91FC9113972081862F7E
S113015090E0019630E08223932302C09595879521
S11301606A95E2F70895DC011296ED91FC911397DC
S1130170208181E090E002C0880F991F6A95E2F720
S1130180822B80830895DC011296ED91FC911397E4
S1130190208181E090E002C0880F991F6A95E2F700
S11301A0822B80830895DC011296ED91FC911397C4
S11301B060830895DC011296ED91FC9113972081E0
S11301C081E090E002C0880F991F6A95E2F780955C
S11301D0822380830895DC011296ED91FC9113979C
S11301E0208181E090E002C0880F991F6A95E2F7B0
S11301F08095822380830895DC011296ED91FC9111
S11302001397808186230895DC011296ED91FC9169
S11302101397808190E00895FC01738362830895AD
S1130220089580E090E0089580E00895DC01ED9168
S1130230FC910284F385E02D09950895FC016487FF
S11302400895FC01848508950A960E94CA020895BF
S1130250CF93DF93EC0184E690E099838883CE0109
S113026004960E94EE02CE010A960E94B802CE01C4
S113027046960E944D02CE014C960E944D02CE013C
S113028082960E943402CE0186960E948E01CE018F
S11302908A960E948701DF91CF910895CF93DF93CF
S11302A0EC0184E690E099838883CE018A960E94CB
S11302B08D01CE0186960E949401CE0182960E9401
S11302C03A02CE014C960E943C02CE0146960E9410
S11302D03C02CE010A960E949B02CE0104960E9423
S11302E0D902DF91CF910895CF93DF93EC010E945F
S11302F04E01CE010E94F802DF91CF9108950A9633
S11303000E946602089504960E94DB02089520E884
S113031030E0FC0131832083089508952EE930E014
S1130320FC013183208308950895DC011296ED9138
S1130330FC911397808191810895DC011296ED91CF
S1130340FC9113972081318181E090E002C0880FF5
S1130350991F6A95E2F7822B932B918380830895EA
S1130360DC011296ED91FC9113972081318181E09B
S113037090E002C0880F991F6A95E2F7822B932BB5
S1130380918380830895DC011296ED91FC9113977B
S113039080819181862B918380830895DC0112965C
S11303A0ED91FC9113972081318181E090E002C0AE
S11303B0880F991F6A95E2F780959095822393237D
S11303C0918380830895DC011296ED91FC9113973B
S11303D02081318181E090E002C0880F991F6A95E5
S11303E0E2F78095909582239323918380830895E7
S11303F0DC011296ED91FC9113978081918170E05C
S11304006095709568237923718360830895DC0176
S11304101296ED91FC911397808191818623089522
S1130420DC011296ED91FC91139720813181862F86
S113043090E001968223932302C0969587956A954E
S1130440E2F70895DC011296ED91FC911397208157
S11304503181862F90E001968223932302C09695E2
S113046087956A95E2F708952CEB30E0FC0131831F
S113047020830895089508950895DC011296ED915E
S1130480FC911397008CF18DE02D02960995089547
S1130490089508950E94F80208952AED30E0FC01C1
S11304A0318320832AEE30E0338322830895FC01D4
S11304B063830895FC0183810895FC016283089598
S11304C0FC018281089581E008950895CF93DF931C
S11304D0611126C0EC01E881F9810284F385E02DE5
S11304E0099520E090E08930910598F4FC01E65DDF
S11304F0FF4F0C94F90221600DC022600BC02160F3
S113050009C0226007C0226005C0216003C02360C7
S113051001C02160EA85FB858081822B808308C02D
S1130520DC011A96ED91FC911B9780818C7F80836E
S1130530DF91CF910895CF93DF93EC0188E091E0B0
S113054099838883CE0108960E94D802CE0104962E
S11305500E94D102DF91CF910895CF93DF93EC01F4
S11305600E949B02CE010E94F802DF91CF91089570
S1130570CF93DF93EC0188E091E099838883CE01E7
S113058004960E94CB02CE0108960E94D202DF910B
S1130590CF91089508952EE131E0FC013183208349
S11305A0089508952CE331E0FC01318320830895FC
S11305B0089508950895DC01ED91FC91008CF18D6E
S11305C0E02D0995089504970E94DB0208950E9486
S11305D0F802089504970E94E70208952AE531E09D
S11305E0FC01318320832EE731E035832483089591
S11305F00895EE0FFF1F0590F491E02D0994F894EF
S1050600FFCF26
S1130602000000004E0174010C01100111011601D9
S113061224011E0121017F01830114010000000055
S11306227700B300C300D3007C00DA00EB0085003E
S1130632FC00A1008F007B00040100000000770091
S1130642B300C300D3007C00DA00EB008500FC0099
S1130652A1008F007B0004010000000074009D01D2
S1130662B0017500C301CE01E301F80107022202C1
S1130672100276009501000000003C024A023B028F
S11306823D0248024902FEFF000074009D01B001D0
S11306927500C301CE01E301F80107022202100230
S11306A2760095010000000057025A029B02AD0237
S11306B25D026002660263026502000000007700C8
S11306C2B300C300D3007C00DA00EB008500FC0019
S11306D2A1008F007B000401000000007700B3003A
S11306E2C300D3007C00DA00EB008500FC00A1000B
S11306F28F007B0004010000000074009D01B00122
S11307027500C301CE01E301F801070222021002BF
S113071276009501D902E702DB02FCFF0000DA024F
S1070722EA02E302FE
S9030000FC
